{
  "contractName": "Medical",
  "abi": [
    {
      "constant": true,
      "inputs": [
        {
          "name": "",
          "type": "address"
        }
      ],
      "name": "canWrite",
      "outputs": [
        {
          "name": "",
          "type": "bool"
        }
      ],
      "payable": false,
      "stateMutability": "view",
      "type": "function"
    },
    {
      "constant": true,
      "inputs": [
        {
          "name": "",
          "type": "address"
        }
      ],
      "name": "canRead",
      "outputs": [
        {
          "name": "",
          "type": "bool"
        }
      ],
      "payable": false,
      "stateMutability": "view",
      "type": "function"
    },
    {
      "constant": true,
      "inputs": [],
      "name": "writer",
      "outputs": [
        {
          "name": "",
          "type": "address"
        }
      ],
      "payable": false,
      "stateMutability": "view",
      "type": "function"
    },
    {
      "constant": true,
      "inputs": [],
      "name": "reader",
      "outputs": [
        {
          "name": "",
          "type": "address"
        }
      ],
      "payable": false,
      "stateMutability": "view",
      "type": "function"
    },
    {
      "inputs": [],
      "payable": false,
      "stateMutability": "nonpayable",
      "type": "constructor"
    },
    {
      "constant": false,
      "inputs": [],
      "name": "Read",
      "outputs": [
        {
          "name": "",
          "type": "string"
        }
      ],
      "payable": false,
      "stateMutability": "nonpayable",
      "type": "function"
    },
    {
      "constant": false,
      "inputs": [
        {
          "name": "locationHash",
          "type": "string"
        }
      ],
      "name": "Write",
      "outputs": [],
      "payable": false,
      "stateMutability": "nonpayable",
      "type": "function"
    },
    {
      "constant": false,
      "inputs": [],
      "name": "ReadPermission",
      "outputs": [],
      "payable": false,
      "stateMutability": "nonpayable",
      "type": "function"
    },
    {
      "constant": false,
      "inputs": [],
      "name": "WritePermission",
      "outputs": [],
      "payable": false,
      "stateMutability": "nonpayable",
      "type": "function"
    },
    {
      "constant": false,
      "inputs": [],
      "name": "GrantWritePermission",
      "outputs": [],
      "payable": false,
      "stateMutability": "nonpayable",
      "type": "function"
    },
    {
      "constant": false,
      "inputs": [],
      "name": "GrantReadPermission",
      "outputs": [],
      "payable": false,
      "stateMutability": "nonpayable",
      "type": "function"
    },
    {
      "constant": true,
      "inputs": [],
      "name": "CheckWritePermission",
      "outputs": [
        {
          "name": "",
          "type": "bool"
        }
      ],
      "payable": false,
      "stateMutability": "view",
      "type": "function"
    },
    {
      "constant": true,
      "inputs": [],
      "name": "CheckReadPermission",
      "outputs": [
        {
          "name": "",
          "type": "bool"
        }
      ],
      "payable": false,
      "stateMutability": "view",
      "type": "function"
    }
  ],
  "bytecode": "0x608060405234801561001057600080fd5b50326000806101000a81548173ffffffffffffffffffffffffffffffffffffffff021916908373ffffffffffffffffffffffffffffffffffffffff160217905550610e32806100606000396000f3fe6080604052600436106100ba576000357c0100000000000000000000000000000000000000000000000000000000900463ffffffff168063197fca30146100bf578063201703fd146100d65780633239b71b146100ed5780633339f83e1461015657806342087d4f14610185578063453a2abc146101ee5780635993e647146102455780636211f7321461030d578063798e9be11461033c57806397deb47b14610353578063c8ebc49b146103e3578063d4fc42c6146103fa575b600080fd5b3480156100cb57600080fd5b506100d4610451565b005b3480156100e257600080fd5b506100eb61067e565b005b3480156100f957600080fd5b5061013c6004803603602081101561011057600080fd5b81019080803573ffffffffffffffffffffffffffffffffffffffff1690602001909291905050506106c1565b604051808215151515815260200191505060405180910390f35b34801561016257600080fd5b5061016b6106e1565b604051808215151515815260200191505060405180910390f35b34801561019157600080fd5b506101d4600480360360208110156101a857600080fd5b81019080803573ffffffffffffffffffffffffffffffffffffffff169060200190929190505050610735565b604051808215151515815260200191505060405180910390f35b3480156101fa57600080fd5b50610203610755565b604051808273ffffffffffffffffffffffffffffffffffffffff1673ffffffffffffffffffffffffffffffffffffffff16815260200191505060405180910390f35b34801561025157600080fd5b5061030b6004803603602081101561026857600080fd5b810190808035906020019064010000000081111561028557600080fd5b82018360208201111561029757600080fd5b803590602001918460018302840111640100000000831117156102b957600080fd5b91908080601f016020809104026020016040519081016040528093929190818152602001838380828437600081840152601f19601f82011690508083019250505050505050919291929050505061077b565b005b34801561031957600080fd5b506103226108b5565b604051808215151515815260200191505060405180910390f35b34801561034857600080fd5b50610351610909565b005b34801561035f57600080fd5b5061036861094c565b6040518080602001828103825283818151815260200191508051906020019080838360005b838110156103a857808201518184015260208101905061038d565b50505050905090810190601f1680156103d55780820380516001836020036101000a031916815260200191505b509250505060405180910390f35b3480156103ef57600080fd5b506103f8610b0e565b005b34801561040657600080fd5b5061040f610d3b565b604051808273ffffffffffffffffffffffffffffffffffffffff1673ffffffffffffffffffffffffffffffffffffffff16815260200191505060405180910390f35b3373ffffffffffffffffffffffffffffffffffffffff166000809054906101000a900473ffffffffffffffffffffffffffffffffffffffff1673ffffffffffffffffffffffffffffffffffffffff1614151561053b576040517f08c379a00000000000000000000000000000000000000000000000000000000081526004018080602001828103825260228152602001807f596f752063616e206e6f74206772616e74207772697465207065726d6973736981526020017f6f6e00000000000000000000000000000000000000000000000000000000000081525060400191505060405180910390fd5b600073ffffffffffffffffffffffffffffffffffffffff16600360009054906101000a900473ffffffffffffffffffffffffffffffffffffffff1673ffffffffffffffffffffffffffffffffffffffff1614151515610602576040517f08c379a000000000000000000000000000000000000000000000000000000000815260040180806020018281038252600a8152602001807f4e6f20777269746572210000000000000000000000000000000000000000000081525060200191505060405180910390fd5b600160056000600360009054906101000a900473ffffffffffffffffffffffffffffffffffffffff1673ffffffffffffffffffffffffffffffffffffffff1673ffffffffffffffffffffffffffffffffffffffff16815260200190815260200160002060006101000a81548160ff021916908315150217905550565b33600260006101000a81548173ffffffffffffffffffffffffffffffffffffffff021916908373ffffffffffffffffffffffffffffffffffffffff160217905550565b60056020528060005260406000206000915054906101000a900460ff1681565b6000600460003373ffffffffffffffffffffffffffffffffffffffff1673ffffffffffffffffffffffffffffffffffffffff16815260200190815260200160002060009054906101000a900460ff16905090565b60046020528060005260406000206000915054906101000a900460ff1681565b600360009054906101000a900473ffffffffffffffffffffffffffffffffffffffff1681565b60011515600560003373ffffffffffffffffffffffffffffffffffffffff1673ffffffffffffffffffffffffffffffffffffffff16815260200190815260200160002060009054906101000a900460ff161515141515610843576040517f08c379a00000000000000000000000000000000000000000000000000000000081526004018080602001828103825260208152602001807f596f7520646f206e6f742068617665207772697465207065726d697373696f6e81525060200191505060405180910390fd5b8060019080519060200190610859929190610d61565b506000600560003373ffffffffffffffffffffffffffffffffffffffff1673ffffffffffffffffffffffffffffffffffffffff16815260200190815260200160002060006101000a81548160ff02191690831515021790555050565b6000600560003373ffffffffffffffffffffffffffffffffffffffff1673ffffffffffffffffffffffffffffffffffffffff16815260200190815260200160002060009054906101000a900460ff16905090565b33600360006101000a81548173ffffffffffffffffffffffffffffffffffffffff021916908373ffffffffffffffffffffffffffffffffffffffff160217905550565b606060011515600460003373ffffffffffffffffffffffffffffffffffffffff1673ffffffffffffffffffffffffffffffffffffffff16815260200190815260200160002060009054906101000a900460ff161515141515610a16576040517f08c379a000000000000000000000000000000000000000000000000000000000815260040180806020018281038252601f8152602001807f596f7520646f206e6f7420686176652072656164207065726d697373696f6e0081525060200191505060405180910390fd5b6000600460003373ffffffffffffffffffffffffffffffffffffffff1673ffffffffffffffffffffffffffffffffffffffff16815260200190815260200160002060006101000a81548160ff02191690831515021790555060018054600181600116156101000203166002900480601f016020809104026020016040519081016040528092919081815260200182805460018160011615610100020316600290048015610b045780601f10610ad957610100808354040283529160200191610b04565b820191906000526020600020905b815481529060010190602001808311610ae757829003601f168201915b5050505050905090565b3373ffffffffffffffffffffffffffffffffffffffff166000809054906101000a900473ffffffffffffffffffffffffffffffffffffffff1673ffffffffffffffffffffffffffffffffffffffff16141515610bf8576040517f08c379a00000000000000000000000000000000000000000000000000000000081526004018080602001828103825260218152602001807f596f752063616e206e6f74206772616e742072656164207065726d697373696f81526020017f6e0000000000000000000000000000000000000000000000000000000000000081525060400191505060405180910390fd5b600073ffffffffffffffffffffffffffffffffffffffff16600260009054906101000a900473ffffffffffffffffffffffffffffffffffffffff1673ffffffffffffffffffffffffffffffffffffffff1614151515610cbf576040517f08c379a000000000000000000000000000000000000000000000000000000000815260040180806020018281038252600a8152602001807f4e6f20726561646572210000000000000000000000000000000000000000000081525060200191505060405180910390fd5b600160046000600260009054906101000a900473ffffffffffffffffffffffffffffffffffffffff1673ffffffffffffffffffffffffffffffffffffffff1673ffffffffffffffffffffffffffffffffffffffff16815260200190815260200160002060006101000a81548160ff021916908315150217905550565b600260009054906101000a900473ffffffffffffffffffffffffffffffffffffffff1681565b828054600181600116156101000203166002900490600052602060002090601f016020900481019282601f10610da257805160ff1916838001178555610dd0565b82800160010185558215610dd0579182015b82811115610dcf578251825591602001919060010190610db4565b5b509050610ddd9190610de1565b5090565b610e0391905b80821115610dff576000816000905550600101610de7565b5090565b9056fea165627a7a723058208f657fbb042cbde0e7ccf837c1dcc9a36a07a3185d4d1472490f8e61e080a3950029",
  "source": "pragma solidity ^0.5.0;\r\n\r\ncontract Medical {\r\n    address private owner;\r\n    string private medicalLocationHash;\r\n\r\n    address public reader;\r\n    address public writer;\r\n    mapping(address => bool) public canRead;\r\n    mapping(address => bool) public canWrite;\r\n\r\n    constructor() public {\r\n        owner = tx.origin;\r\n    }\r\n\r\n    function Read() public returns (string memory) {\r\n        require(canRead[msg.sender] == true, \"You do not have read permission\");\r\n        canRead[msg.sender] = false;\r\n        return medicalLocationHash;\r\n    }\r\n\r\n    function Write(string memory locationHash) public {\r\n        require(\r\n            canWrite[msg.sender] == true,\r\n            \"You do not have write permission\"\r\n        );\r\n        medicalLocationHash = locationHash;\r\n        canWrite[msg.sender] = false;\r\n    }\r\n\r\n    function ReadPermission() public {\r\n        reader = msg.sender;\r\n    }\r\n\r\n    function WritePermission() public {\r\n        writer = msg.sender;\r\n    }\r\n\r\n    function GrantWritePermission() public {\r\n        require(owner == msg.sender, \"You can not grant write permission\");\r\n        require(writer != address(0), \"No writer!\");\r\n        canWrite[writer] = true;\r\n    }\r\n\r\n    function GrantReadPermission() public {\r\n        require(owner == msg.sender, \"You can not grant read permission\");\r\n        require(reader != address(0), \"No reader!\");\r\n        canRead[reader] = true;\r\n    }\r\n\r\n    function CheckWritePermission() public view returns (bool) {\r\n        return canWrite[msg.sender];\r\n    }\r\n\r\n    function CheckReadPermission() public view returns (bool) {\r\n        return canRead[msg.sender];\r\n    }\r\n}\r\n\r\n// contract Adoption {\r\n//     address[16] public adopters;\r\n\r\n//     // Adopting a pet\r\n//     function adopt(uint256 petId) public returns (uint256) {\r\n//         require(petId >= 0 && petId <= 15);\r\n//         adopters[petId] = msg.sender;\r\n//         return petId;\r\n//     }\r\n\r\n//     // Retrieving the adopters\r\n//     function getAdopters() public view returns (address[16] memory) {\r\n//         return adopters;\r\n//     }\r\n// }\r\n",
  "sourcePath": "C:/Users/srvta/Documents/dmr_2/dmr-frontend/contracts/Medical.sol",
  "compiler": {
    "name": "solc",
    "version": "0.5.0+commit.1d4f565a.Emscripten.clang"
  },
  "schemaVersion": "3.0.2",
  "updatedAt": "2021-03-05T07:53:41.866Z",
  "devdoc": {
    "methods": {}
  },
  "userdoc": {
    "methods": {}
  }
}