{
  "contractName": "Medical",
  "abi": [
    {
      "inputs": [],
      "payable": false,
      "stateMutability": "nonpayable",
      "type": "constructor"
    },
    {
      "constant": true,
      "inputs": [
        {
          "internalType": "string",
          "name": "",
          "type": "string"
        }
      ],
      "name": "canWrite",
      "outputs": [
        {
          "internalType": "bool",
          "name": "",
          "type": "bool"
        }
      ],
      "payable": false,
      "stateMutability": "view",
      "type": "function"
    },
    {
      "constant": true,
      "inputs": [
        {
          "internalType": "string",
          "name": "",
          "type": "string"
        }
      ],
      "name": "readHash",
      "outputs": [
        {
          "internalType": "string",
          "name": "",
          "type": "string"
        }
      ],
      "payable": false,
      "stateMutability": "view",
      "type": "function"
    },
    {
      "constant": true,
      "inputs": [],
      "name": "reader",
      "outputs": [
        {
          "internalType": "string",
          "name": "",
          "type": "string"
        }
      ],
      "payable": false,
      "stateMutability": "view",
      "type": "function"
    },
    {
      "constant": true,
      "inputs": [],
      "name": "writer",
      "outputs": [
        {
          "internalType": "string",
          "name": "",
          "type": "string"
        }
      ],
      "payable": false,
      "stateMutability": "view",
      "type": "function"
    },
    {
      "constant": false,
      "inputs": [
        {
          "internalType": "string",
          "name": "username",
          "type": "string"
        }
      ],
      "name": "RevokeRead",
      "outputs": [],
      "payable": false,
      "stateMutability": "nonpayable",
      "type": "function"
    },
    {
      "constant": false,
      "inputs": [
        {
          "internalType": "string",
          "name": "locationHash",
          "type": "string"
        },
        {
          "internalType": "string",
          "name": "username",
          "type": "string"
        }
      ],
      "name": "Write",
      "outputs": [],
      "payable": false,
      "stateMutability": "nonpayable",
      "type": "function"
    },
    {
      "constant": false,
      "inputs": [
        {
          "internalType": "string",
          "name": "username",
          "type": "string"
        }
      ],
      "name": "ReadPermission",
      "outputs": [],
      "payable": false,
      "stateMutability": "nonpayable",
      "type": "function"
    },
    {
      "constant": false,
      "inputs": [
        {
          "internalType": "string",
          "name": "username",
          "type": "string"
        }
      ],
      "name": "WritePermission",
      "outputs": [],
      "payable": false,
      "stateMutability": "nonpayable",
      "type": "function"
    },
    {
      "constant": false,
      "inputs": [
        {
          "internalType": "string",
          "name": "encryptedLocationHash",
          "type": "string"
        }
      ],
      "name": "GrantWritePermission",
      "outputs": [],
      "payable": false,
      "stateMutability": "nonpayable",
      "type": "function"
    },
    {
      "constant": false,
      "inputs": [
        {
          "internalType": "string",
          "name": "encryptedLocationHash",
          "type": "string"
        }
      ],
      "name": "GrantReadPermission",
      "outputs": [],
      "payable": false,
      "stateMutability": "nonpayable",
      "type": "function"
    },
    {
      "constant": true,
      "inputs": [
        {
          "internalType": "string",
          "name": "username",
          "type": "string"
        }
      ],
      "name": "CheckWritePermission",
      "outputs": [
        {
          "internalType": "bool",
          "name": "",
          "type": "bool"
        }
      ],
      "payable": false,
      "stateMutability": "view",
      "type": "function"
    },
    {
      "constant": true,
      "inputs": [
        {
          "internalType": "string",
          "name": "username",
          "type": "string"
        }
      ],
      "name": "Read",
      "outputs": [
        {
          "internalType": "string",
          "name": "",
          "type": "string"
        }
      ],
      "payable": false,
      "stateMutability": "view",
      "type": "function"
    },
    {
      "constant": true,
      "inputs": [],
      "name": "ViewLocationHash",
      "outputs": [
        {
          "internalType": "string",
          "name": "",
          "type": "string"
        }
      ],
      "payable": false,
      "stateMutability": "view",
      "type": "function"
    },
    {
      "constant": true,
      "inputs": [],
      "name": "ViewReader",
      "outputs": [
        {
          "internalType": "string",
          "name": "",
          "type": "string"
        }
      ],
      "payable": false,
      "stateMutability": "view",
      "type": "function"
    },
    {
      "constant": true,
      "inputs": [],
      "name": "ViewWriter",
      "outputs": [
        {
          "internalType": "string",
          "name": "",
          "type": "string"
        }
      ],
      "payable": false,
      "stateMutability": "view",
      "type": "function"
    }
  ],
  "bytecode": "0x608060405234801561001057600080fd5b50326000806101000a81548173ffffffffffffffffffffffffffffffffffffffff021916908373ffffffffffffffffffffffffffffffffffffffff16021790555061198f806100606000396000f3fe608060405234801561001057600080fd5b50600436106100f55760003560e01c80637c9c81dc11610097578063d4aecd2c11610066578063d4aecd2c1461094b578063d4fc42c614610a7f578063d899823514610b02578063f75174b314610bd5576100f5565b80637c9c81dc1461060057806396d19244146107525780639f3bc50c146107d5578063c0cf8aa914610890576100f5565b8063427cb41f116100d3578063427cb41f1461036c578063453a2abc1461042757806351f22a43146104aa5780635eb346501461052d576100f5565b80632cc345fb146100fa5780632f2becba146101b55780633e0142d014610238575b600080fd5b6101b36004803603602081101561011057600080fd5b810190808035906020019064010000000081111561012d57600080fd5b82018360208201111561013f57600080fd5b8035906020019184600183028401116401000000008311171561016157600080fd5b91908080601f016020809104026020016040519081016040528093929190818152602001838380828437600081840152601f19601f820116905080830192505050505050509192919290505050610c90565b005b6101bd610d20565b6040518080602001828103825283818151815260200191508051906020019080838360005b838110156101fd5780820151818401526020810190506101e2565b50505050905090810190601f16801561022a5780820380516001836020036101000a031916815260200191505b509250505060405180910390f35b6102f16004803603602081101561024e57600080fd5b810190808035906020019064010000000081111561026b57600080fd5b82018360208201111561027d57600080fd5b8035906020019184600183028401116401000000008311171561029f57600080fd5b91908080601f016020809104026020016040519081016040528093929190818152602001838380828437600081840152601f19601f820116905080830192505050505050509192919290505050610dc2565b6040518080602001828103825283818151815260200191508051906020019080838360005b83811015610331578082015181840152602081019050610316565b50505050905090810190601f16801561035e5780820380516001836020036101000a031916815260200191505b509250505060405180910390f35b6104256004803603602081101561038257600080fd5b810190808035906020019064010000000081111561039f57600080fd5b8201836020820111156103b157600080fd5b803590602001918460018302840111640100000000831117156103d357600080fd5b91908080601f016020809104026020016040519081016040528093929190818152602001838380828437600081840152601f19601f820116905080830192505050505050509192919290505050610ecd565b005b61042f6110af565b6040518080602001828103825283818151815260200191508051906020019080838360005b8381101561046f578082015181840152602081019050610454565b50505050905090810190601f16801561049c5780820380516001836020036101000a031916815260200191505b509250505060405180910390f35b6104b261114d565b6040518080602001828103825283818151815260200191508051906020019080838360005b838110156104f25780820151818401526020810190506104d7565b50505050905090810190601f16801561051f5780820380516001836020036101000a031916815260200191505b509250505060405180910390f35b6105e66004803603602081101561054357600080fd5b810190808035906020019064010000000081111561056057600080fd5b82018360208201111561057257600080fd5b8035906020019184600183028401116401000000008311171561059457600080fd5b91908080601f016020809104026020016040519081016040528093929190818152602001838380828437600081840152601f19601f8201169050808301925050505050505091929192905050506111ef565b604051808215151515815260200191505060405180910390f35b6107506004803603604081101561061657600080fd5b810190808035906020019064010000000081111561063357600080fd5b82018360208201111561064557600080fd5b8035906020019184600183028401116401000000008311171561066757600080fd5b91908080601f016020809104026020016040519081016040528093929190818152602001838380828437600081840152601f19601f820116905080830192505050505050509192919290803590602001906401000000008111156106ca57600080fd5b8201836020820111156106dc57600080fd5b803590602001918460018302840111640100000000831117156106fe57600080fd5b91908080601f016020809104026020016040519081016040528093929190818152602001838380828437600081840152601f19601f82011690508083019250505050505050919291929050505061126f565b005b61075a6113fc565b6040518080602001828103825283818151815260200191508051906020019080838360005b8381101561079a57808201518184015260208101905061077f565b50505050905090810190601f1680156107c75780820380516001836020036101000a031916815260200191505b509250505060405180910390f35b61088e600480360360208110156107eb57600080fd5b810190808035906020019064010000000081111561080857600080fd5b82018360208201111561081a57600080fd5b8035906020019184600183028401116401000000008311171561083c57600080fd5b91908080601f016020809104026020016040519081016040528093929190818152602001838380828437600081840152601f19601f82011690508083019250505050505050919291929050505061149e565b005b610949600480360360208110156108a657600080fd5b81019080803590602001906401000000008111156108c357600080fd5b8201836020820111156108d557600080fd5b803590602001918460018302840111640100000000831117156108f757600080fd5b91908080601f016020809104026020016040519081016040528093929190818152602001838380828437600081840152601f19601f8201169050808301925050505050505091929192905050506114cf565b005b610a046004803603602081101561096157600080fd5b810190808035906020019064010000000081111561097e57600080fd5b82018360208201111561099057600080fd5b803590602001918460018302840111640100000000831117156109b257600080fd5b91908080601f016020809104026020016040519081016040528093929190818152602001838380828437600081840152601f19601f8201169050808301925050505050505091929192905050506114e9565b6040518080602001828103825283818151815260200191508051906020019080838360005b83811015610a44578082015181840152602081019050610a29565b50505050905090810190601f168015610a715780820380516001836020036101000a031916815260200191505b509250505060405180910390f35b610a876115af565b6040518080602001828103825283818151815260200191508051906020019080838360005b83811015610ac7578082015181840152602081019050610aac565b50505050905090810190601f168015610af45780820380516001836020036101000a031916815260200191505b509250505060405180910390f35b610bbb60048036036020811015610b1857600080fd5b8101908080359060200190640100000000811115610b3557600080fd5b820183602082011115610b4757600080fd5b80359060200191846001830284011164010000000083111715610b6957600080fd5b91908080601f016020809104026020016040519081016040528093929190818152602001838380828437600081840152601f19601f82011690508083019250505050505050919291929050505061164d565b604051808215151515815260200191505060405180910390f35b610c8e60048036036020811015610beb57600080fd5b8101908080359060200190640100000000811115610c0857600080fd5b820183602082011115610c1a57600080fd5b80359060200191846001830284011164010000000083111715610c3c57600080fd5b91908080601f016020809104026020016040519081016040528093929190818152602001838380828437600081840152601f19601f820116905080830192505050505050509192919290505050611683565b005b604051806020016040528060008152506004826040518082805190602001908083835b60208310610cd65780518252602082019150602081019050602083039250610cb3565b6001836020036101000a03801982511681845116808217855250505050505090500191505090815260200160405180910390209080519060200190610d1c929190611872565b5050565b606060038054600181600116156101000203166002900480601f016020809104026020016040519081016040528092919081815260200182805460018160011615610100020316600290048015610db85780601f10610d8d57610100808354040283529160200191610db8565b820191906000526020600020905b815481529060010190602001808311610d9b57829003601f168201915b5050505050905090565b60606004826040518082805190602001908083835b60208310610dfa5780518252602082019150602081019050602083039250610dd7565b6001836020036101000a03801982511681845116808217855250505050505090500191505090815260200160405180910390208054600181600116156101000203166002900480601f016020809104026020016040519081016040528092919081815260200182805460018160011615610100020316600290048015610ec15780601f10610e9657610100808354040283529160200191610ec1565b820191906000526020600020905b815481529060010190602001808311610ea457829003601f168201915b50505050509050919050565b3373ffffffffffffffffffffffffffffffffffffffff166000809054906101000a900473ffffffffffffffffffffffffffffffffffffffff1673ffffffffffffffffffffffffffffffffffffffff1614610f72576040517f08c379a000000000000000000000000000000000000000000000000000000000815260040180806020018281038252602181526020018061193a6021913960400191505060405180910390fd5b600060028054600181600116156101000203166002900490501415610fff576040517f08c379a000000000000000000000000000000000000000000000000000000000815260040180806020018281038252600a8152602001807f4e6f20726561646572210000000000000000000000000000000000000000000081525060200191505060405180910390fd5b8060046002604051808280546001816001161561010002031660029004801561105f5780601f1061103d57610100808354040283529182019161105f565b820191906000526020600020905b81548152906001019060200180831161104b575b505091505090815260200160405180910390209080519060200190611085929190611872565b5060405180602001604052806000815250600290805190602001906110ab929190611872565b5050565b60038054600181600116156101000203166002900480601f0160208091040260200160405190810160405280929190818152602001828054600181600116156101000203166002900480156111455780601f1061111a57610100808354040283529160200191611145565b820191906000526020600020905b81548152906001019060200180831161112857829003601f168201915b505050505081565b606060018054600181600116156101000203166002900480601f0160208091040260200160405190810160405280929190818152602001828054600181600116156101000203166002900480156111e55780601f106111ba576101008083540402835291602001916111e5565b820191906000526020600020905b8154815290600101906020018083116111c857829003601f168201915b5050505050905090565b60006005826040518082805190602001908083835b602083106112275780518252602082019150602081019050602083039250611204565b6001836020036101000a038019825116818451168082178552505050505050905001915050908152602001604051809103902060009054906101000a900460ff169050919050565b600115156005826040518082805190602001908083835b602083106112a95780518252602082019150602081019050602083039250611286565b6001836020036101000a038019825116818451168082178552505050505050905001915050908152602001604051809103902060009054906101000a900460ff1615151461135f576040517f08c379a00000000000000000000000000000000000000000000000000000000081526004018080602001828103825260208152602001807f596f7520646f206e6f742068617665207772697465207065726d697373696f6e81525060200191505060405180910390fd5b8160019080519060200190611375929190611872565b5060006005826040518082805190602001908083835b602083106113ae578051825260208201915060208101905060208303925061138b565b6001836020036101000a038019825116818451168082178552505050505050905001915050908152602001604051809103902060006101000a81548160ff0219169083151502179055505050565b606060028054600181600116156101000203166002900480601f0160208091040260200160405190810160405280929190818152602001828054600181600116156101000203166002900480156114945780601f1061146957610100808354040283529160200191611494565b820191906000526020600020905b81548152906001019060200180831161147757829003601f168201915b5050505050905090565b80600390805190602001906114b4929190611872565b5080600290805190602001906114cb929190611872565b5050565b80600290805190602001906114e5929190611872565b5050565b6004818051602081018201805184825260208301602085012081835280955050505050506000915090508054600181600116156101000203166002900480601f0160208091040260200160405190810160405280929190818152602001828054600181600116156101000203166002900480156115a75780601f1061157c576101008083540402835291602001916115a7565b820191906000526020600020905b81548152906001019060200180831161158a57829003601f168201915b505050505081565b60028054600181600116156101000203166002900480601f0160208091040260200160405190810160405280929190818152602001828054600181600116156101000203166002900480156116455780601f1061161a57610100808354040283529160200191611645565b820191906000526020600020905b81548152906001019060200180831161162857829003601f168201915b505050505081565b6005818051602081018201805184825260208301602085012081835280955050505050506000915054906101000a900460ff1681565b3373ffffffffffffffffffffffffffffffffffffffff166000809054906101000a900473ffffffffffffffffffffffffffffffffffffffff1673ffffffffffffffffffffffffffffffffffffffff1614611728576040517f08c379a00000000000000000000000000000000000000000000000000000000081526004018080602001828103825260228152602001806119186022913960400191505060405180910390fd5b6000600380546001816001161561010002031660029004905014156117b5576040517f08c379a000000000000000000000000000000000000000000000000000000000815260040180806020018281038252600a8152602001807f4e6f20777269746572210000000000000000000000000000000000000000000081525060200191505060405180910390fd5b6117be81610ecd565b600160056003604051808280546001816001161561010002031660029004801561181f5780601f106117fd57610100808354040283529182019161181f565b820191906000526020600020905b81548152906001019060200180831161180b575b5050915050908152602001604051809103902060006101000a81548160ff021916908315150217905550604051806020016040528060008152506003908051906020019061186e929190611872565b5050565b828054600181600116156101000203166002900490600052602060002090601f016020900481019282601f106118b357805160ff19168380011785556118e1565b828001600101855582156118e1579182015b828111156118e05782518255916020019190600101906118c5565b5b5090506118ee91906118f2565b5090565b61191491905b808211156119105760008160009055506001016118f8565b5090565b9056fe596f752063616e206e6f74206772616e74207772697465207065726d697373696f6e596f752063616e206e6f74206772616e742072656164207065726d697373696f6ea265627a7a72315820944dbd4515a0600c16d3a869cd01fd920de9a0bec30ecc8b747cd2e4f3b9198764736f6c63430005100032",
  "source": "pragma solidity ^0.5.0;\r\n\r\ncontract Medical {\r\n    address private owner;\r\n    string private medicalLocationHash;\r\n\r\n    string public reader;\r\n    string public writer;\r\n    mapping(string => string) public readHash;\r\n    mapping(string => bool) public canWrite;\r\n\r\n    constructor() public {\r\n        owner = tx.origin;\r\n    }\r\n\r\n    function RevokeRead(string memory username) public {\r\n        readHash[username] = \"\";\r\n    }\r\n\r\n    function Write(string memory locationHash, string memory username) public {\r\n        require(\r\n            canWrite[username] == true,\r\n            \"You do not have write permission\"\r\n        );\r\n        medicalLocationHash = locationHash;\r\n        canWrite[username] = false;\r\n    }\r\n\r\n    function ReadPermission(string memory username) public {\r\n        reader = username;\r\n    }\r\n\r\n    function WritePermission(string memory username) public {\r\n        writer = username;\r\n        reader = username;\r\n    }\r\n\r\n    function GrantWritePermission(string memory encryptedLocationHash) public {\r\n        require(owner == msg.sender, \"You can not grant write permission\");\r\n        require(bytes(writer).length != 0, \"No writer!\");\r\n        GrantReadPermission(encryptedLocationHash);\r\n        canWrite[writer] = true;\r\n        writer = \"\";\r\n    }\r\n\r\n    function GrantReadPermission(string memory encryptedLocationHash) public {\r\n        require(owner == msg.sender, \"You can not grant read permission\");\r\n        require(bytes(reader).length != 0, \"No reader!\");\r\n        readHash[reader] = encryptedLocationHash;\r\n        reader = \"\";\r\n    }\r\n\r\n    function CheckWritePermission(string memory username) public view returns (bool) {\r\n        return canWrite[username];\r\n    }\r\n\r\n    function Read(string memory username) public view returns (string memory) {\r\n        return readHash[username];\r\n    }\r\n\r\n    function ViewLocationHash() public view returns (string memory) {\r\n        return medicalLocationHash;\r\n    }\r\n\r\n    function ViewReader() public view returns (string memory) {\r\n        return reader;\r\n    }\r\n\r\n    function ViewWriter() public view returns (string memory) {\r\n        return writer;\r\n    }\r\n}\r\n",
  "sourcePath": "D:/Study/BTP/app/frontend/contracts/Medical.sol",
  "compiler": {
    "name": "solc",
    "version": "0.5.16+commit.9c3226ce.Emscripten.clang"
  },
  "schemaVersion": "3.3.3",
  "updatedAt": "2021-03-14T10:05:59.897Z",
  "devdoc": {
    "methods": {}
  },
  "userdoc": {
    "methods": {}
  }
}