{
  "contractName": "Medical",
  "abi": [
    {
      "inputs": [],
      "payable": false,
      "stateMutability": "nonpayable",
      "type": "constructor"
    },
    {
      "constant": true,
      "inputs": [],
      "name": "reader",
      "outputs": [
        {
          "internalType": "address",
          "name": "",
          "type": "address"
        }
      ],
      "payable": false,
      "stateMutability": "view",
      "type": "function"
    },
    {
      "constant": true,
      "inputs": [],
      "name": "writer",
      "outputs": [
        {
          "internalType": "address",
          "name": "",
          "type": "address"
        }
      ],
      "payable": false,
      "stateMutability": "view",
      "type": "function"
    },
    {
      "constant": false,
      "inputs": [],
      "name": "Read",
      "outputs": [
        {
          "internalType": "string",
          "name": "",
          "type": "string"
        }
      ],
      "payable": false,
      "stateMutability": "nonpayable",
      "type": "function"
    },
    {
      "constant": false,
      "inputs": [
        {
          "internalType": "string",
          "name": "locationHash",
          "type": "string"
        }
      ],
      "name": "Write",
      "outputs": [],
      "payable": false,
      "stateMutability": "nonpayable",
      "type": "function"
    },
    {
      "constant": false,
      "inputs": [],
      "name": "ReadPermission",
      "outputs": [],
      "payable": false,
      "stateMutability": "nonpayable",
      "type": "function"
    },
    {
      "constant": false,
      "inputs": [],
      "name": "WritePermission",
      "outputs": [],
      "payable": false,
      "stateMutability": "nonpayable",
      "type": "function"
    },
    {
      "constant": false,
      "inputs": [],
      "name": "GrantWritePermission",
      "outputs": [],
      "payable": false,
      "stateMutability": "nonpayable",
      "type": "function"
    },
    {
      "constant": false,
      "inputs": [],
      "name": "GrantReadPermission",
      "outputs": [],
      "payable": false,
      "stateMutability": "nonpayable",
      "type": "function"
    }
  ],
  "bytecode": "0x608060405234801561001057600080fd5b50326000806101000a81548173ffffffffffffffffffffffffffffffffffffffff021916908373ffffffffffffffffffffffffffffffffffffffff160217905550610ae2806100606000396000f3fe608060405234801561001057600080fd5b50600436106100885760003560e01c8063798e9be11161005b578063798e9be1146101a657806397deb47b146101b0578063c8ebc49b14610233578063d4fc42c61461023d57610088565b8063197fca301461008d578063201703fd14610097578063453a2abc146100a15780635993e647146100eb575b600080fd5b610095610287565b005b61009f61046d565b005b6100a96104b0565b604051808273ffffffffffffffffffffffffffffffffffffffff1673ffffffffffffffffffffffffffffffffffffffff16815260200191505060405180910390f35b6101a46004803603602081101561010157600080fd5b810190808035906020019064010000000081111561011e57600080fd5b82018360208201111561013057600080fd5b8035906020019184600183028401116401000000008311171561015257600080fd5b91908080601f016020809104026020016040519081016040528093929190818152602001838380828437600081840152601f19601f8201169050808301925050505050505091929192905050506104d6565b005b6101ae61060e565b005b6101b8610651565b6040518080602001828103825283818151815260200191508051906020019080838360005b838110156101f85780820151818401526020810190506101dd565b50505050905090810190601f1680156102255780820380516001836020036101000a031916815260200191505b509250505060405180910390f35b61023b6107b9565b005b61024561099f565b604051808273ffffffffffffffffffffffffffffffffffffffff1673ffffffffffffffffffffffffffffffffffffffff16815260200191505060405180910390f35b3373ffffffffffffffffffffffffffffffffffffffff166000809054906101000a900473ffffffffffffffffffffffffffffffffffffffff1673ffffffffffffffffffffffffffffffffffffffff161461032c576040517f08c379a0000000000000000000000000000000000000000000000000000000008152600401808060200182810382526022815260200180610a6b6022913960400191505060405180910390fd5b600073ffffffffffffffffffffffffffffffffffffffff16600360009054906101000a900473ffffffffffffffffffffffffffffffffffffffff1673ffffffffffffffffffffffffffffffffffffffff1614156103f1576040517f08c379a000000000000000000000000000000000000000000000000000000000815260040180806020018281038252600a8152602001807f4e6f20777269746572210000000000000000000000000000000000000000000081525060200191505060405180910390fd5b600160056000600360009054906101000a900473ffffffffffffffffffffffffffffffffffffffff1673ffffffffffffffffffffffffffffffffffffffff1673ffffffffffffffffffffffffffffffffffffffff16815260200190815260200160002060006101000a81548160ff021916908315150217905550565b33600260006101000a81548173ffffffffffffffffffffffffffffffffffffffff021916908373ffffffffffffffffffffffffffffffffffffffff160217905550565b600360009054906101000a900473ffffffffffffffffffffffffffffffffffffffff1681565b60011515600560003373ffffffffffffffffffffffffffffffffffffffff1673ffffffffffffffffffffffffffffffffffffffff16815260200190815260200160002060009054906101000a900460ff1615151461059c576040517f08c379a00000000000000000000000000000000000000000000000000000000081526004018080602001828103825260208152602001807f596f7520646f206e6f742068617665207772697465207065726d697373696f6e81525060200191505060405180910390fd5b80600190805190602001906105b29291906109c5565b506000600560003373ffffffffffffffffffffffffffffffffffffffff1673ffffffffffffffffffffffffffffffffffffffff16815260200190815260200160002060006101000a81548160ff02191690831515021790555050565b33600360006101000a81548173ffffffffffffffffffffffffffffffffffffffff021916908373ffffffffffffffffffffffffffffffffffffffff160217905550565b606060011515600460003373ffffffffffffffffffffffffffffffffffffffff1673ffffffffffffffffffffffffffffffffffffffff16815260200190815260200160002060009054906101000a900460ff16151514610719576040517f08c379a000000000000000000000000000000000000000000000000000000000815260040180806020018281038252601f8152602001807f596f7520646f206e6f7420686176652072656164207065726d697373696f6e0081525060200191505060405180910390fd5b60018054600181600116156101000203166002900480601f0160208091040260200160405190810160405280929190818152602001828054600181600116156101000203166002900480156107af5780601f10610784576101008083540402835291602001916107af565b820191906000526020600020905b81548152906001019060200180831161079257829003601f168201915b5050505050905090565b3373ffffffffffffffffffffffffffffffffffffffff166000809054906101000a900473ffffffffffffffffffffffffffffffffffffffff1673ffffffffffffffffffffffffffffffffffffffff161461085e576040517f08c379a0000000000000000000000000000000000000000000000000000000008152600401808060200182810382526021815260200180610a8d6021913960400191505060405180910390fd5b600073ffffffffffffffffffffffffffffffffffffffff16600260009054906101000a900473ffffffffffffffffffffffffffffffffffffffff1673ffffffffffffffffffffffffffffffffffffffff161415610923576040517f08c379a000000000000000000000000000000000000000000000000000000000815260040180806020018281038252600a8152602001807f4e6f20726561646572210000000000000000000000000000000000000000000081525060200191505060405180910390fd5b600160046000600260009054906101000a900473ffffffffffffffffffffffffffffffffffffffff1673ffffffffffffffffffffffffffffffffffffffff1673ffffffffffffffffffffffffffffffffffffffff16815260200190815260200160002060006101000a81548160ff021916908315150217905550565b600260009054906101000a900473ffffffffffffffffffffffffffffffffffffffff1681565b828054600181600116156101000203166002900490600052602060002090601f016020900481019282601f10610a0657805160ff1916838001178555610a34565b82800160010185558215610a34579182015b82811115610a33578251825591602001919060010190610a18565b5b509050610a419190610a45565b5090565b610a6791905b80821115610a63576000816000905550600101610a4b565b5090565b9056fe596f752063616e206e6f74206772616e74207772697465207065726d697373696f6e596f752063616e206e6f74206772616e742072656164207065726d697373696f6ea265627a7a72315820bea7e353b7c5fd2d8e3591ef8693e3f51bc3281216a4799afe79aae2d1a99ba964736f6c63430005100032",
  "source": "pragma solidity ^0.5.0;\r\n\r\ncontract Medical {\r\n    address private owner;\r\n    string private medicalLocationHash;\r\n\r\n    address public reader;\r\n    address public writer;\r\n    mapping(address => bool) canRead;\r\n    mapping(address => bool) canWrite;\r\n\r\n    constructor() public {\r\n        owner = tx.origin;\r\n    }\r\n\r\n    function Read() public returns (string memory) {\r\n        require(canRead[msg.sender] == true, \"You do not have read permission\");\r\n        return medicalLocationHash;\r\n    }\r\n\r\n    function Write(string memory locationHash) public {\r\n        require(\r\n            canWrite[msg.sender] == true,\r\n            \"You do not have write permission\"\r\n        );\r\n        medicalLocationHash = locationHash;\r\n        canWrite[msg.sender] = false;\r\n    }\r\n\r\n    function ReadPermission() public {\r\n        reader = msg.sender;\r\n    }\r\n\r\n    function WritePermission() public {\r\n        writer = msg.sender;\r\n    }\r\n\r\n    function GrantWritePermission() public {\r\n        require(owner == msg.sender, \"You can not grant write permission\");\r\n        require(writer != address(0), \"No writer!\");\r\n        canWrite[writer] = true;\r\n    }\r\n\r\n    function GrantReadPermission() public {\r\n        require(owner == msg.sender, \"You can not grant read permission\");\r\n        require(reader != address(0), \"No reader!\");\r\n        canRead[reader] = true;\r\n    }\r\n}\r\n\r\n// contract Adoption {\r\n//     address[16] public adopters;\r\n\r\n//     // Adopting a pet\r\n//     function adopt(uint256 petId) public returns (uint256) {\r\n//         require(petId >= 0 && petId <= 15);\r\n//         adopters[petId] = msg.sender;\r\n//         return petId;\r\n//     }\r\n\r\n//     // Retrieving the adopters\r\n//     function getAdopters() public view returns (address[16] memory) {\r\n//         return adopters;\r\n//     }\r\n// }\r\n",
  "sourcePath": "D:/Learn/blockchain/dmrtest/contracts/Medical.sol",
  "compiler": {
    "name": "solc",
    "version": "0.5.16+commit.9c3226ce.Emscripten.clang"
  },
  "schemaVersion": "3.3.3",
  "updatedAt": "2021-02-19T08:47:53.385Z",
  "networkType": "ethereum",
  "devdoc": {
    "methods": {}
  },
  "userdoc": {
    "methods": {}
  }
}