{
  "contractName": "Test",
  "abi": [
    {
      "constant": true,
      "inputs": [],
      "name": "writer",
      "outputs": [
        {
          "name": "",
          "type": "address"
        }
      ],
      "payable": false,
      "stateMutability": "view",
      "type": "function"
    },
    {
      "constant": true,
      "inputs": [],
      "name": "reader",
      "outputs": [
        {
          "name": "",
          "type": "address"
        }
      ],
      "payable": false,
      "stateMutability": "view",
      "type": "function"
    },
    {
      "inputs": [],
      "payable": false,
      "stateMutability": "nonpayable",
      "type": "constructor"
    },
    {
      "constant": true,
      "inputs": [],
      "name": "test",
      "outputs": [
        {
          "name": "",
          "type": "uint256"
        }
      ],
      "payable": false,
      "stateMutability": "pure",
      "type": "function"
    },
    {
      "constant": false,
      "inputs": [
        {
          "name": "locationHash",
          "type": "string"
        }
      ],
      "name": "StoreLocationHash",
      "outputs": [
        {
          "name": "",
          "type": "string"
        }
      ],
      "payable": false,
      "stateMutability": "nonpayable",
      "type": "function"
    },
    {
      "constant": true,
      "inputs": [],
      "name": "Read",
      "outputs": [
        {
          "name": "",
          "type": "string"
        }
      ],
      "payable": false,
      "stateMutability": "view",
      "type": "function"
    },
    {
      "constant": false,
      "inputs": [],
      "name": "ReadPermission",
      "outputs": [
        {
          "name": "",
          "type": "address"
        }
      ],
      "payable": false,
      "stateMutability": "nonpayable",
      "type": "function"
    },
    {
      "constant": false,
      "inputs": [],
      "name": "WritePermission",
      "outputs": [
        {
          "name": "",
          "type": "address"
        }
      ],
      "payable": false,
      "stateMutability": "nonpayable",
      "type": "function"
    },
    {
      "constant": false,
      "inputs": [],
      "name": "GrantWritePermission",
      "outputs": [
        {
          "name": "",
          "type": "string"
        }
      ],
      "payable": false,
      "stateMutability": "nonpayable",
      "type": "function"
    }
  ],
  "bytecode": "0x608060405234801561001057600080fd5b5032600460006101000a81548173ffffffffffffffffffffffffffffffffffffffff021916908373ffffffffffffffffffffffffffffffffffffffff160217905550610990806100616000396000f3fe60806040526004361061008e576000357c0100000000000000000000000000000000000000000000000000000000900463ffffffff168063197fca3014610093578063201703fd14610123578063453a2abc1461017a578063798e9be1146101d157806397deb47b14610228578063cb4f21c9146102b8578063d4fc42c6146103f9578063f8a8fd6d14610450575b600080fd5b34801561009f57600080fd5b506100a861047b565b6040518080602001828103825283818151815260200191508051906020019080838360005b838110156100e85780820151818401526020810190506100cd565b50505050905090810190601f1680156101155780820380516001836020036101000a031916815260200191505b509250505060405180910390f35b34801561012f57600080fd5b5061013861060a565b604051808273ffffffffffffffffffffffffffffffffffffffff1673ffffffffffffffffffffffffffffffffffffffff16815260200191505060405180910390f35b34801561018657600080fd5b5061018f610673565b604051808273ffffffffffffffffffffffffffffffffffffffff1673ffffffffffffffffffffffffffffffffffffffff16815260200191505060405180910390f35b3480156101dd57600080fd5b506101e6610699565b604051808273ffffffffffffffffffffffffffffffffffffffff1673ffffffffffffffffffffffffffffffffffffffff16815260200191505060405180910390f35b34801561023457600080fd5b5061023d610704565b6040518080602001828103825283818151815260200191508051906020019080838360005b8381101561027d578082015181840152602081019050610262565b50505050905090810190601f1680156102aa5780820380516001836020036101000a031916815260200191505b509250505060405180910390f35b3480156102c457600080fd5b5061037e600480360360208110156102db57600080fd5b81019080803590602001906401000000008111156102f857600080fd5b82018360208201111561030a57600080fd5b8035906020019184600183028401116401000000008311171561032c57600080fd5b91908080601f016020809104026020016040519081016040528093929190818152602001838380828437600081840152601f19601f8201169050808301925050505050505091929192905050506107a6565b6040518080602001828103825283818151815260200191508051906020019080838360005b838110156103be5780820151818401526020810190506103a3565b50505050905090810190601f1680156103eb5780820380516001836020036101000a031916815260200191505b509250505060405180910390f35b34801561040557600080fd5b5061040e610890565b604051808273ffffffffffffffffffffffffffffffffffffffff1673ffffffffffffffffffffffffffffffffffffffff16815260200191505060405180910390f35b34801561045c57600080fd5b506104656108b5565b6040518082815260200191505060405180910390f35b60603373ffffffffffffffffffffffffffffffffffffffff16600460009054906101000a900473ffffffffffffffffffffffffffffffffffffffff1673ffffffffffffffffffffffffffffffffffffffff161480156105295750600073ffffffffffffffffffffffffffffffffffffffff16600160009054906101000a900473ffffffffffffffffffffffffffffffffffffffff1673ffffffffffffffffffffffffffffffffffffffff1614155b156105ce57600160009054906101000a900473ffffffffffffffffffffffffffffffffffffffff16600260006101000a81548173ffffffffffffffffffffffffffffffffffffffff021916908373ffffffffffffffffffffffffffffffffffffffff1602179055506040805190810160405280601881526020017f5772697465205065726d697373696f6e204772616e74656400000000000000008152509050610607565b6040805190810160405280601181526020017f5065726d697373696f6e2044656e69656400000000000000000000000000000081525090505b90565b6000336000806101000a81548173ffffffffffffffffffffffffffffffffffffffff021916908373ffffffffffffffffffffffffffffffffffffffff1602179055506000809054906101000a900473ffffffffffffffffffffffffffffffffffffffff16905090565b600160009054906101000a900473ffffffffffffffffffffffffffffffffffffffff1681565b600033600160006101000a81548173ffffffffffffffffffffffffffffffffffffffff021916908373ffffffffffffffffffffffffffffffffffffffff160217905550600160009054906101000a900473ffffffffffffffffffffffffffffffffffffffff16905090565b606060058054600181600116156101000203166002900480601f01602080910402602001604051908101604052809291908181526020018280546001816001161561010002031660029004801561079c5780601f106107715761010080835404028352916020019161079c565b820191906000526020600020905b81548152906001019060200180831161077f57829003601f168201915b5050505050905090565b6060600260009054906101000a900473ffffffffffffffffffffffffffffffffffffffff1673ffffffffffffffffffffffffffffffffffffffff163373ffffffffffffffffffffffffffffffffffffffff1614156108525781600590805190602001906108149291906108bf565b506040805190810160405280601981526020017f44617461207772697474656e207375636365737366756c6c7900000000000000815250905061088b565b6040805190810160405280601181526020017f5065726d697373696f6e2044656e69656400000000000000000000000000000081525090505b919050565b6000809054906101000a900473ffffffffffffffffffffffffffffffffffffffff1681565b6000610539905090565b828054600181600116156101000203166002900490600052602060002090601f016020900481019282601f1061090057805160ff191683800117855561092e565b8280016001018555821561092e579182015b8281111561092d578251825591602001919060010190610912565b5b50905061093b919061093f565b5090565b61096191905b8082111561095d576000816000905550600101610945565b5090565b9056fea165627a7a723058202bc0372b81ae8edbff342b6c8ed2675b48a70514545caa3f9183c4533543be5f0029",
  "source": "pragma solidity >=0.4.21 <0.7.0;\r\n\r\ncontract Test {\r\n    address public reader;\r\n    address public writer;\r\n    address private canWrite;\r\n    address private canRead;\r\n    address private owner;\r\n    string private medicalLocationHash;\r\n\r\n    constructor() public {\r\n        owner = tx.origin;\r\n    }\r\n\r\n    function test() public pure returns (uint) {\r\n        return 1337;\r\n    }\r\n\r\n    function StoreLocationHash(string memory locationHash)\r\n        public\r\n        returns (string memory)\r\n    {\r\n        if (msg.sender == canWrite) {\r\n            medicalLocationHash = locationHash;\r\n            return \"Data written successfully\";\r\n        }\r\n        return \"Permission Denied\";\r\n    }\r\n\r\n    function Read() public view returns (string memory) {\r\n        return medicalLocationHash;\r\n    }\r\n\r\n    function ReadPermission() public returns (address) {\r\n        reader = msg.sender;\r\n        return reader;\r\n    }\r\n\r\n    function WritePermission() public returns (address) {\r\n        writer = msg.sender;\r\n        return writer;\r\n    }\r\n\r\n    function GrantWritePermission() public returns (string memory) {\r\n        if (owner == msg.sender && writer != address(0)) {\r\n            canWrite = writer;\r\n            return \"Write Permission Granted\";\r\n        }\r\n        return \"Permission Denied\";\r\n    }\r\n\r\n    // function GrantReadPermission() public returns (string memory) {\r\n    //     if (owner == msg.sender && reader != address(0)) {\r\n    //         canRead = reader;\r\n    //         return \"Permission Granted\";\r\n    //     }\r\n    //     return \"Permission Denied\";\r\n    // }\r\n}\r\n\r\n// contract Adoption {\r\n//     address[16] public adopters;\r\n\r\n//     // Adopting a pet\r\n//     function adopt(uint256 petId) public returns (uint256) {\r\n//         require(petId >= 0 && petId <= 15);\r\n//         adopters[petId] = msg.sender;\r\n//         return petId;\r\n//     }\r\n\r\n//     // Retrieving the adopters\r\n//     function getAdopters() public view returns (address[16] memory) {\r\n//         return adopters;\r\n//     }\r\n// }\r\n",
  "sourcePath": "C:/Users/srvta/Documents/dmr_2/dmr-frontend/contracts/Test.sol",
  "compiler": {
    "name": "solc",
    "version": "0.5.0+commit.1d4f565a.Emscripten.clang"
  },
  "schemaVersion": "3.0.2",
  "updatedAt": "2021-03-05T05:26:13.567Z",
  "devdoc": {
    "methods": {}
  },
  "userdoc": {
    "methods": {}
  }
}