{
  "contractName": "Test",
  "abi": [
    {
      "inputs": [],
      "payable": false,
      "stateMutability": "nonpayable",
      "type": "constructor"
    },
    {
      "constant": true,
      "inputs": [],
      "name": "reader",
      "outputs": [
        {
          "internalType": "address",
          "name": "",
          "type": "address"
        }
      ],
      "payable": false,
      "stateMutability": "view",
      "type": "function"
    },
    {
      "constant": true,
      "inputs": [],
      "name": "writer",
      "outputs": [
        {
          "internalType": "address",
          "name": "",
          "type": "address"
        }
      ],
      "payable": false,
      "stateMutability": "view",
      "type": "function"
    },
    {
      "constant": true,
      "inputs": [],
      "name": "test",
      "outputs": [
        {
          "internalType": "uint256",
          "name": "",
          "type": "uint256"
        }
      ],
      "payable": false,
      "stateMutability": "pure",
      "type": "function"
    },
    {
      "constant": false,
      "inputs": [
        {
          "internalType": "string",
          "name": "locationHash",
          "type": "string"
        }
      ],
      "name": "StoreLocationHash",
      "outputs": [
        {
          "internalType": "string",
          "name": "",
          "type": "string"
        }
      ],
      "payable": false,
      "stateMutability": "nonpayable",
      "type": "function"
    },
    {
      "constant": true,
      "inputs": [],
      "name": "Read",
      "outputs": [
        {
          "internalType": "string",
          "name": "",
          "type": "string"
        }
      ],
      "payable": false,
      "stateMutability": "view",
      "type": "function"
    },
    {
      "constant": false,
      "inputs": [],
      "name": "ReadPermission",
      "outputs": [
        {
          "internalType": "address",
          "name": "",
          "type": "address"
        }
      ],
      "payable": false,
      "stateMutability": "nonpayable",
      "type": "function"
    },
    {
      "constant": false,
      "inputs": [],
      "name": "WritePermission",
      "outputs": [
        {
          "internalType": "address",
          "name": "",
          "type": "address"
        }
      ],
      "payable": false,
      "stateMutability": "nonpayable",
      "type": "function"
    },
    {
      "constant": false,
      "inputs": [],
      "name": "GrantWritePermission",
      "outputs": [
        {
          "internalType": "string",
          "name": "",
          "type": "string"
        }
      ],
      "payable": false,
      "stateMutability": "nonpayable",
      "type": "function"
    }
  ],
  "bytecode": "0x608060405234801561001057600080fd5b5032600460006101000a81548173ffffffffffffffffffffffffffffffffffffffff021916908373ffffffffffffffffffffffffffffffffffffffff16021790555061092b806100616000396000f3fe608060405234801561001057600080fd5b50600436106100885760003560e01c806397deb47b1161005b57806397deb47b146101ee578063cb4f21c914610271578063d4fc42c6146103a5578063f8a8fd6d146103ef57610088565b8063197fca301461008d578063201703fd14610110578063453a2abc1461015a578063798e9be1146101a4575b600080fd5b61009561040d565b6040518080602001828103825283818151815260200191508051906020019080838360005b838110156100d55780820151818401526020810190506100ba565b50505050905090810190601f1680156101025780820380516001836020036101000a031916815260200191505b509250505060405180910390f35b61011861059c565b604051808273ffffffffffffffffffffffffffffffffffffffff1673ffffffffffffffffffffffffffffffffffffffff16815260200191505060405180910390f35b610162610605565b604051808273ffffffffffffffffffffffffffffffffffffffff1673ffffffffffffffffffffffffffffffffffffffff16815260200191505060405180910390f35b6101ac61062b565b604051808273ffffffffffffffffffffffffffffffffffffffff1673ffffffffffffffffffffffffffffffffffffffff16815260200191505060405180910390f35b6101f6610696565b6040518080602001828103825283818151815260200191508051906020019080838360005b8381101561023657808201518184015260208101905061021b565b50505050905090810190601f1680156102635780820380516001836020036101000a031916815260200191505b509250505060405180910390f35b61032a6004803603602081101561028757600080fd5b81019080803590602001906401000000008111156102a457600080fd5b8201836020820111156102b657600080fd5b803590602001918460018302840111640100000000831117156102d857600080fd5b91908080601f016020809104026020016040519081016040528093929190818152602001838380828437600081840152601f19601f820116905080830192505050505050509192919290505050610738565b6040518080602001828103825283818151815260200191508051906020019080838360005b8381101561036a57808201518184015260208101905061034f565b50505050905090810190601f1680156103975780820380516001836020036101000a031916815260200191505b509250505060405180910390f35b6103ad610822565b604051808273ffffffffffffffffffffffffffffffffffffffff1673ffffffffffffffffffffffffffffffffffffffff16815260200191505060405180910390f35b6103f7610847565b6040518082815260200191505060405180910390f35b60603373ffffffffffffffffffffffffffffffffffffffff16600460009054906101000a900473ffffffffffffffffffffffffffffffffffffffff1673ffffffffffffffffffffffffffffffffffffffff161480156104bb5750600073ffffffffffffffffffffffffffffffffffffffff16600160009054906101000a900473ffffffffffffffffffffffffffffffffffffffff1673ffffffffffffffffffffffffffffffffffffffff1614155b1561056057600160009054906101000a900473ffffffffffffffffffffffffffffffffffffffff16600260006101000a81548173ffffffffffffffffffffffffffffffffffffffff021916908373ffffffffffffffffffffffffffffffffffffffff1602179055506040518060400160405280601881526020017f5772697465205065726d697373696f6e204772616e74656400000000000000008152509050610599565b6040518060400160405280601181526020017f5065726d697373696f6e2044656e69656400000000000000000000000000000081525090505b90565b6000336000806101000a81548173ffffffffffffffffffffffffffffffffffffffff021916908373ffffffffffffffffffffffffffffffffffffffff1602179055506000809054906101000a900473ffffffffffffffffffffffffffffffffffffffff16905090565b600160009054906101000a900473ffffffffffffffffffffffffffffffffffffffff1681565b600033600160006101000a81548173ffffffffffffffffffffffffffffffffffffffff021916908373ffffffffffffffffffffffffffffffffffffffff160217905550600160009054906101000a900473ffffffffffffffffffffffffffffffffffffffff16905090565b606060058054600181600116156101000203166002900480601f01602080910402602001604051908101604052809291908181526020018280546001816001161561010002031660029004801561072e5780601f106107035761010080835404028352916020019161072e565b820191906000526020600020905b81548152906001019060200180831161071157829003601f168201915b5050505050905090565b6060600260009054906101000a900473ffffffffffffffffffffffffffffffffffffffff1673ffffffffffffffffffffffffffffffffffffffff163373ffffffffffffffffffffffffffffffffffffffff1614156107e45781600590805190602001906107a6929190610851565b506040518060400160405280601981526020017f44617461207772697474656e207375636365737366756c6c7900000000000000815250905061081d565b6040518060400160405280601181526020017f5065726d697373696f6e2044656e69656400000000000000000000000000000081525090505b919050565b6000809054906101000a900473ffffffffffffffffffffffffffffffffffffffff1681565b6000610539905090565b828054600181600116156101000203166002900490600052602060002090601f016020900481019282601f1061089257805160ff19168380011785556108c0565b828001600101855582156108c0579182015b828111156108bf5782518255916020019190600101906108a4565b5b5090506108cd91906108d1565b5090565b6108f391905b808211156108ef5760008160009055506001016108d7565b5090565b9056fea265627a7a72315820627969f326f2ef99336b894e01b7f33eb2362a5596f03334b8d7f97c5dec20c064736f6c63430005100032",
  "source": "pragma solidity >=0.4.21 <0.7.0;\n\ncontract Test {\n    address public reader;\n    address public writer;\n    address private canWrite;\n    address private canRead;\n    address private owner;\n    string private medicalLocationHash;\n\n    constructor() public {\n        owner = tx.origin;\n    }\n\n    function test() public pure returns (uint) {\n        return 1337;\n    }\n\n    function StoreLocationHash(string memory locationHash)\n        public\n        returns (string memory)\n    {\n        if (msg.sender == canWrite) {\n            medicalLocationHash = locationHash;\n            return \"Data written successfully\";\n        }\n        return \"Permission Denied\";\n    }\n\n    function Read() public view returns (string memory) {\n        return medicalLocationHash;\n    }\n\n    function ReadPermission() public returns (address) {\n        reader = msg.sender;\n        return reader;\n    }\n\n    function WritePermission() public returns (address) {\n        writer = msg.sender;\n        return writer;\n    }\n\n    function GrantWritePermission() public returns (string memory) {\n        if (owner == msg.sender && writer != address(0)) {\n            canWrite = writer;\n            return \"Write Permission Granted\";\n        }\n        return \"Permission Denied\";\n    }\n\n    // function GrantReadPermission() public returns (string memory) {\n    //     if (owner == msg.sender && reader != address(0)) {\n    //         canRead = reader;\n    //         return \"Permission Granted\";\n    //     }\n    //     return \"Permission Denied\";\n    // }\n}\n\n// contract Adoption {\n//     address[16] public adopters;\n\n//     // Adopting a pet\n//     function adopt(uint256 petId) public returns (uint256) {\n//         require(petId >= 0 && petId <= 15);\n//         adopters[petId] = msg.sender;\n//         return petId;\n//     }\n\n//     // Retrieving the adopters\n//     function getAdopters() public view returns (address[16] memory) {\n//         return adopters;\n//     }\n// }\n",
  "sourcePath": "/home/nisarg/Desktop/btp/proj/dmr-frontend/contracts/test.sol",
  "compiler": {
    "name": "solc",
    "version": "0.5.16+commit.9c3226ce.Emscripten.clang"
  },
  "schemaVersion": "3.3.4",
  "updatedAt": "2021-03-10T11:14:07.501Z",
  "devdoc": {
    "methods": {}
  },
  "userdoc": {
    "methods": {}
  }
}